:020000040800F2
:10000000005000200D01000855010008ED07000810
:1000100055010008550100085501000800000000C6
:100020000000000000000000000000005501000872
:10003000550100080000000055010008E107000814
:100040005501000855010008550100085501000838
:100050005501000855010008550100085501000828
:100060005501000855010008550100085501000818
:100070005501000855010008550100085501000808
:1000800055010008550100085501000855010008F8
:1000900055010008550100085501000855010008E8
:1000A00055010008550100085501000855010008D8
:1000B00055010008550100085501000855010008C8
:1000C00055010008550100085501000855010008B8
:1000D00055010008550100085501000855010008A8
:1000E00055010008550100085501000800000000F6
:1000F0000000000000000000000000000000000000
:0C01000000000000000000005FF808F1A3
:10010C000C4D0D4C03E02B682360043504340B4B71
:10011C009C42F8D10A4C02E0002323600434094BC2
:10012C009C42F9D100F012F803F02EFA00F0FAFA22
:10013C00FEE700BF24360008000000200C00002061
:10014C000C00002054000020FEE700BF80B400AF7C
:10015C00154B1B68144A43F001031360124B5A6889
:10016C001149124B13404B600F4B1B680E4A23F086
:10017C00847323F4803313600B4B1B680A4A23F4FB
:10018C0080231360084B5B68074A23F4FE0353601B
:10019C00054B4FF41F029A60054B4FF000629A60BA
:1001AC0000BFBD4680BC7047001002400000FFF845
:1001BC0000ED00E080B485B000AF0023FB600023AD
:1001CC00BB6000237B602F4B5B6803F00C03FB6070
:1001DC00FB68082B11D0FB68082B3AD8FB68002B66
:1001EC0003D0FB68042B04D033E0274B274A1A605A
:1001FC0033E0254B254A1A602FE0224B5B6803F451
:10020C007013BB601F4B5B6803F480337B60BB686F
:10021C009B0C0233BB607B68002B06D1BB681C4A6D
:10022C0002FB03F3184A136017E0164B5B6803F4E8
:10023C000033002B06D0BB68154A02FB03F3124AAD
:10024C0013600AE0BB68114A02FB03F30E4A136009
:10025C0003E00D4B0D4A1A6000BF0A4B5B681B098B
:10026C0003F00F030B4AD35CFB60074B1A68FB6867
:10027C0022FA03F3044A136000BF1437BD4680BC56
:10028C00704700BF001002400000002000127A00EE
:10029C0000093D00DC35000880B590B000AF07F1D7
:1002AC00180328220021184603F066F93B1D002292
:1002BC001A605A609A60DA601A610123BB614FF4CC
:1002CC008033FB6102237B634FF48033BB634FF4B9
:1002DC00E013FB6307F11803184601F081FD0F23AF
:1002EC007B600223BB600023FB604FF480633B61A7
:1002FC0000237B613B1D0221184601F0F3FF00BF78
:10030C004037BD4680BD80B588B000AF1E4B9B69A1
:10031C001D4A43F0100393611B4B9B6903F01003C0
:10032C00FB60FB68184B9B69174A43F0040393610D
:10033C00154B9B6903F00403BB60BB68124B9B69B4
:10034C00114A43F0010393610F4B9B6903F00103C6
:10035C007B607B6807F1100300221A605A609A6078
:10036C00DA604FF400533B6101237B610023BB61D6
:10037C000223FB6107F110031946044802F066FAE8
:10038C0000BF2037BD4680BD001002400010014068
:10039C0080B590B000AF394BDB69384A43F000733D
:1003AC00D361364BDB6903F000737B607B6807F12C
:1003BC00300300221A605A609A60DA604FF4C0531E
:1003CC003B6302237B630323FB6307F13003194672
:1003DC002B4802F03BFA2B4B2B4A1A60294B042278
:1003EC005A60284B00229A60264B0022DA60254B7B
:1003FC004FF400321A61234B4FF480025A61214BA7
:10040C0000221A761F4B00225A761E4B00229A7637
:10041C001C4B0122DA761B4B00221A77194B002257
:10042C005A77184800F094FB0346002B00D0FEE7E7
:10043C0007F1080328220021184603F09DF8002339
:10044C003B6201237B620023BB600023FB60002323
:10045C003B6100237B610023BB610123BB62002352
:10046C00FB6107F108031946064800F0A1FC05489A
:10047C0000F067FD00BF4037BD4680BD0010024054
:10048C00000801400C0000200064004080B58CB0D6
:10049C0000AFF860B9601346FB7107F11803002236
:1004AC001A605A609A60DA601A615A61FB68BB6123
:1004BC0000233B6200237B62FB79BB6207F11403D0
:1004CC0007F11801BA68044800F04BFE03461846C1
:1004DC003037BD4680BD00BF0C00002080B483B017
:1004EC0000AF786039603B68DAB27B681A703B68A1
:1004FC001A127B680133D2B21A703B681A147B68EB
:10050C000233D2B21A703B681A167B680333D2B22C
:10051C001A7000BF0C37BD4680BC704780B584B0E4
:10052C0000AF0346FB71FB793B7301237B7307F12F
:10053C000C030222194640F21340FFF7A7FF00BF3D
:10054C001037BD4680BD80B584B000AF0346FB714B
:10055C00FB793B7300237B7307F10C0302221946D2
:10056C0040F21340FFF792FF00BF1037BD4680BD2D
:10057C0080B584B000AF03463960FB7107F1080306
:10058C0000221A605A60FB793B720E49386802F0FF
:10059C00D3FE0346184602F083FF024607F1080318
:1005AC00013311461846FFF799FF07F1080305229E
:1005BC00194640F21540FFF769FF00BF1037BD46E2
:1005CC0080BD00BF0000204180B584B000AF034661
:1005DC003960FB7107F1080300221A605A60FB793D
:1005EC003B720E49386802F0A7FE0346184602F02B
:1005FC0057FF024607F10803013311461846FFF76F
:10060C006DFF07F108030522194640F21440FFF76D
:10061C003DFF00BF1037BD4680BD00BF000020412C
:10062C0080B584B000AF03463960FB7107F1080355
:10063C0000221A605A60FB793B720E49386802F04E
:10064C007BFE0346184602F02BFF024607F1080317
:10065C00013311461846FFF741FF07F10803052245
:10066C00194640F21640FFF711FF00BF1037BD4688
:10067C0080BD00BF0000204180B584B000AF0346B0
:10068C00FB7107F1080300221A605A60FB793B7278
:10069C0007F10803013300211846FFF71FFF07F18C
:1006AC0008030522194640F21640FFF7EFFE00BF83
:1006BC001037BD4680BD80B500AF00224FF400510D
:1006CC00024802F006FB00BF80BD00BF00100140D5
:1006DC0080B500AF01224FF40051024802F0F9FA44
:1006EC0000BF80BD0010014080B584B000AF7860C1
:1006FC0039600023FB600CE0FFF7DDFF386800F089
:10070C0053F9FFF7E5FF386800F04EF9FB68013349
:10071C00FB60FA687B689A42EEDB00BF00BF1037C3
:10072C00BD4680BD80B500AF00F082F8FFF7B4FD88
:10073C00FFF7E9FDC8210320FFF7D6FF4FF4FA704D
:10074C0000F032F9FFF724FE4FF496710120FFF709
:10075C00CBFF4FF4FA7000F027F90520FFF7F3FEFA
:10076C00642000F021F90520FFF7D8FE642000F08A
:10077C001BF9C8210220FFF7B7FF4FF4FA7000F005
:10078C0013F910490520FFF7F3FE0A2000F00CF9CD
:10079C000D490520FFF718FF0A2000F005F9FFF7B7
:1007AC008AFF0A490520FFF73BFF4FF4FA6000F07F
:1007BC00FBF807490520FFF733FF4FF4FA6000F010
:1007CC00F3F8EEE7000048430000FA430000C8428B
:1007DC000000C8C280B500AF00F094F800BF80BD27
:1007EC0080B582B000AF00224FF400510E4802F0E9
:1007FC0070FA00237B6002E07B6801337B607B68CE
:10080C000A4A9342F8D901224FF40051064802F0EB
:10081C0060FA00233B6002E03B6801333B603B68BD
:10082C00024A9342F8D9DEE7001001403F0D030065
:10083C0080B500AF084B1B68074A43F010031360E8
:10084C00032002F0A7FC0F2000F02CF800F01EF89B
:10085C000023184680BD00BF0020024080B500AFC9
:10086C00094B4FF0FF32DA60074B00221A61064B3E
:10087C004FF0FF32DA60044B0022DA6000F00CF823
:10088C000023184680BD00BF0010024080B400AFAA
:10089C0000BFBD4680BC704780B400AF00BFBD46F2
:1008AC0080BC704780B582B000AF7860124B1A687C
:1008BC00124B1B7819464FF47A73B3FBF1F3B2FB6E
:1008CC00F3F3184602F0ADFC0346002B01D00123D4
:1008DC000EE07B680F2B0AD8002279684FF0FF30AE
:1008EC0002F063FC064A7B681360002300E00123DE
:1008FC0018460837BD4680BD0000002008000020C7
:10090C000400002080B400AF054B1B781A46054B41
:10091C001B681344034A136000BFBD4680BC70477C
:10092C00080000203400002080B400AF024B1B688C
:10093C001846BD4680BC70473400002080B400AF20
:10094C00024B1B681846BD4680BC70470400002053
:10095C0080B584B000AF0346FB710023FB730B4BD7
:10096C001B78FA799A420CD0094B1B681846FFF792
:10097C0099FF0346FB73FB7B002B02D1034AFB79E7
:10098C001370FB7B18461037BD4680BD0800002055
:10099C000400002080B400AF024B1B781846BD4603
:1009AC0080BC70470800002080B584B000AF786030
:1009BC00FFF7BAFFB8607B68FB60FB68B3F1FF3FE1
:1009CC0005D00A4B1B781A46FB681344FB6000BF2A
:1009DC00FFF7AAFF0246BB68D31AFA689A42F7D807
:1009EC0000BF00BF1037BD4680BD00BF080000200F
:1009FC0080B400AF044B1B68034A23F0020313605E
:100A0C0000BFBD4680BC704710E000E080B400AF72
:100A1C00044B1B68034A43F00203136000BFBD463E
:100A2C0080BC704710E000E080B400AF024B184669
:100A3C00BD4680BC704700BF0004010180B400AF0C
:100A4C00034B1B681B0C1846BD4680BC704700BF8F
:100A5C00002004E080B400AF034B1B68C3F30B030E
:100A6C001846BD4680BC7047002004E080B400AF3F
:100A7C00024B1B681846BD4680BC7047E8F7FF1F49
:100A8C0080B400AF024B1B681846BD4680BC704753
:100A9C00ECF7FF1F80B400AF024B1B681846BD4635
:100AAC0080BC7047F0F7FF1F80B400AF044B5B684D
:100ABC00034A43F00103536000BFBD4680BC70473E
:100ACC00002004E080B400AF044B5B68034A23F0C1
:100ADC000103536000BFBD4680BC7047002004E09A
:100AEC0080B400AF044B5B68034A43F002035360CD
:100AFC0000BFBD4680BC7047002004E080B400AF4E
:100B0C00044B5B68034A23F00203536000BFBD46ED
:100B1C0080BC7047002004E080B400AF044B5B68DD
:100B2C00034A43F00403536000BFBD4680BC7047CA
:100B3C00002004E080B400AF044B5B68034A23F050
:100B4C000403536000BFBD4680BC7047002004E026
:100B5C0080B584B000AF78607B68002B01D1012395
:100B6C00EDE07B6893F82030DBB2002B02D1786883
:100B7C0000F00CF97B681B681A687B681B6822F014
:100B8C0002021A60FFF7D0FEF86012E0FFF7CCFE0D
:100B9C000246FB68D31A0A2B0BD97B685B6A43F4B9
:100BAC0000327B685A627B68052283F8202001237F
:100BBC00C5E07B681B685B6803F00203002BE5D182
:100BCC007B681B681A687B681B6842F001021A601C
:100BDC00FFF7AAFEF86012E0FFF7A6FE0246FB68DC
:100BEC00D31A0A2B0BD97B685B6A43F400327B68FF
:100BFC005A627B68052283F8202001239FE07B68E2
:100C0C001B685B6803F00103002BE5D07B681B7E3F
:100C1C00012B08D17B681B681A687B681B6842F043
:100C2C0080021A6007E07B681B681A687B681B6887
:100C3C0022F080021A607B685B7E012B08D17B68F6
:100C4C001B681A687B681B6842F040021A6007E058
:100C5C007B681B681A687B681B6822F040021A606C
:100C6C007B689B7E012B08D17B681B681A687B68AC
:100C7C001B6842F020021A6007E07B681B681A6848
:100C8C007B681B6822F020021A607B68DB7E012BDC
:100C9C0008D17B681B681A687B681B6822F01002FD
:100CAC001A6007E07B681B681A687B681B6842F057
:100CBC0010021A607B681B7F012B08D17B681B68B4
:100CCC001A687B681B6842F008021A6007E07B68B0
:100CDC001B681A687B681B6822F008021A607B6824
:100CEC005B7F012B08D17B681B681A687B681B68CB
:100CFC0042F004021A6007E07B681B681A687B6884
:100D0C001B6822F004021A607B689A687B68DB68B7
:100D1C001A437B681B691A437B685B6942EA0301CF
:100D2C007B685B685A1E7B681B680A43DA617B68C8
:100D3C0000225A627B68012283F820200023184687
:100D4C001037BD4680BD80B582B000AF78607B683F
:100D5C00002B01D1012315E0786800F036F9786892
:100D6C0000F01DF87B681B681A687B681B6842F4EE
:100D7C0000421A607B6800225A627B68002283F86A
:100D8C002020002318460837BD4680BD80B483B0B0
:100D9C0000AF786000BF0C37BD4680BC704780B494
:100DAC0083B000AF786000BF0C37BD4680BC704785
:100DBC0080B487B000AF786039607B681B687B615A
:100DCC007B6893F82030FB74FB7C012B03D0FB7CFD
:100DDC00022B40F0AA807B69D3F8003243F0010269
:100DEC007B69C3F800223B685B6903F01F03012297
:100DFC0002FA03F3FB607B69D3F81C22FB68DB432C
:100E0C001A407B69C3F81C223B68DB69002B23D199
:100E1C007B69D3F80C22FB68DB431A407B69C3F86F
:100E2C000C223B68DB6819043B685B689BB23A6830
:100E3C00526919437B69483243F832103B689B680E
:100E4C0019043B681B689AB23B685B690A43796971
:100E5C004833DB000B445A603B68DB69012B22D121
:100E6C007B69D3F80C22FB681A437B69C3F80C220C
:100E7C003B681B6819043B685B689BB23A68526913
:100E8C0019437B69483243F832103B689B6819045C
:100E9C003B68DB689AB23B685B690A437969483303
:100EAC00DB000B445A603B689B69002B09D17B69C2
:100EBC00D3F80422FB68DB431A407B69C3F8042295
:100ECC0007E07B69D3F80422FB681A437B69C3F8FB
:100EDC0004223B681B69002B09D17B69D3F81422CF
:100EEC00FB68DB431A407B69C3F8142207E07B697B
:100EFC00D3F81422FB681A437B69C3F814223B68AD
:100F0C001B6A012B07D17B69D3F81C22FB681A439F
:100F1C007B69C3F81C227B69D3F8003223F00102F1
:100F2C007B69C3F80022002306E07B685B6A43F40C
:100F3C0080227B685A62012318461C37BD4680BC50
:100F4C00704780B584B000AF78607B6893F8203030
:100F5C00DBB2012B2ED17B68022283F820207B6828
:100F6C001B681A687B681B6822F001021A60FFF785
:100F7C00DBFCF86012E0FFF7D7FC0246FB68D31AE3
:100F8C000A2B0BD97B685B6A43F400327B685A628C
:100F9C007B68052283F82020012312E07B681B6804
:100FAC005B6803F00103002BE5D17B6800225A62D9
:100FBC00002306E07B685B6A43F400227B685A627C
:100FCC00012318461037BD4680BD80B584B000AFF4
:100FDC0078607B6893F82030DBB2022B33D17B68CE
:100FEC001B681A687B681B6842F001021A60FFF7E5
:100FFC009BFCF86012E0FFF797FC0246FB68D31AE3
:10100C000A2B0BD97B685B6A43F400327B685A620B
:10101C007B68052283F8202001231BE07B681B687A
:10102C005B6803F00103002BE5D07B681B681A6832
:10103C007B681B6822F002021A607B68012283F82D
:10104C002020002306E07B685B6A43F480127B68F7
:10105C005A62012318461037BD4680BD80B485B056
:10106C0000AF78607B6893F82030FB73FB7B012B1F
:10107C0002D0FB7B022B09D17B681B681A687B684A
:10108C001B6842F002021A60002306E07B685B6A70
:10109C0043F480227B685A62012318461437BD46FC
:1010AC0080BC704780B487B000AF78600023FB60D1
:1010BC001B4B7B617B6893F82030FB74FB7C012B12
:1010CC0002D0FB7C022B1FD17B681B681A687B68E3
:1010DC001B6822F002021A60FB680133FB60FB689C
:1010EC007A699A4207D27B685B6A43F400327B6868
:1010FC005A6201230FE07B681B685B6803F00203F4
:10110C00002BE9D1002306E07B685B6A43F4802264
:10111C007B685A62012318461C37BD4680BC704759
:10112C0040420F0080B485B000AF78600023FB60B4
:10113C007B6893F82030FB72FB7A012B02D0FB7A90
:10114C00022B08D17B681B685B6803F00203002B41
:10115C0001D00123FB60FB6818461437BD4680BCE8
:10116C00704780B489B000AFF860B9607A603B60BA
:10117C00FB6893F82030FB77FB681B689B68BB61AE
:10118C00FB7F012B03D0FB7F022B40F0B880BB69A7
:10119C0003F08063002B0AD1BB6903F00063002BC2
:1011AC0005D1BB6903F08053002B00F0A080BB6914
:1011BC001B0E03F003037B617B69022B07D9FB68D1
:1011CC005B6A43F40002FB685A6201239EE0012231
:1011DC007B699A403B681A60BB689B68002B0DD1F9
:1011EC00BB681B685A05BB68DB68F96809681A4359
:1011FC007B6918331B010B441A600FE0BB685B68FA
:10120C00DA00BB689B681A43BB68DB68F96809683D
:10121C001A437B6918331B010B441A60FB6819686D
:10122C00BB681A697B6918331B010B4404331A60C1
:10123C00BB681B7D012B11D1FB681A687B691833C5
:10124C001B01134404331B68FA68116843F4807261
:10125C007B6918331B010B4404331A607B6807331A
:10126C001B781A067B6806331B781B041A437B68B1
:10127C0005331B781B0213437A680432127810462C
:10128C00FA68116843EA00027B691B010B4403F501
:10129C00C6731A607B6803331B781A067B680233AB
:1012AC001B781B041A437B6801331B781B02134306
:1012BC007A6812781046FA68116843EA00027B6972
:1012CC001B010B4403F5C4731A60FB681A687B6935
:1012DC0018331B0113441B68FA68116843F00102B0
:1012EC007B6918331B010B441A6000230EE0FB686A
:1012FC005B6A43F40012FB685A62012306E0FB6848
:10130C005B6A43F48022FB685A6201231846243737
:10131C00BD4680BC704780B485B000AF7860396042
:10132C007B6893F82030FB73FB7B012B02D0FB7B9B
:10133C00022B28D13B6803F00103002B07D07B68FC
:10134C001B689A687B681B6842F080029A603B6855
:10135C0003F00203002B07D07B681B689A687B683C
:10136C001B6842F400429A603B6803F00403002BB4
:10137C0007D07B681B689A687B681B6842F4000284
:10138C009A60002306E07B685B6A43F480227B68EA
:10139C005A62012318461437BD4680BC704780B48E
:1013AC0085B000AF78600023FB607B6893F8203039
:1013BC00FB72FB7A012B02D0FB7A022B1DD17B68CE
:1013CC001B689B6803F08063002B02D0FB68013321
:1013DC00FB607B681B689B6803F00063002B02D0EA
:1013EC00FB680133FB607B681B689B6803F08053D0
:1013FC00002B02D0FB680133FB60FB6818461437E6
:10140C00BD4680BC704780B485B000AF7860396051
:10141C000023FB607B6893F82030FB72FB7A012B76
:10142C0002D0FB7A022B0BD17B681B689A683B6855
:10143C009B061A403B689B069A4201D00123FB6035
:10144C00FB6818461437BD4680BC704780B489B021
:10145C0000AF786039600023FB617B6893F8203023
:10146C00FB76FB7E012B02D0FB7E022B15D13B6859
:10147C003B613B6993FAA3F3FB60FB68B3FA83F31C
:10148C00DBB27B617B681A687B6918331B011344E0
:10149C0004331B681B0C9BB2FB61FB691846243799
:1014AC00BD4680BC704780B487B000AFF860B960AF
:1014BC007A603B60FB6893F82030FB75FB7D012B59
:1014CC0003D0FB7D022B40F0F380BB68002B0ED1C8
:1014DC00FB681B68DB6803F00303002B16D1FB6869
:1014EC005B6A43F40012FB685A620123E7E0FB6875
:1014FC001B681B6903F00303002B07D1FB685B6AB5
:10150C0043F40012FB685A620123D8E0FB681A68A6
:10151C00BB681B331B0113441B6803F004027B687C
:10152C009A607B689B68002B0CD1FB681A68BB68BF
:10153C001B331B0113441B685B0DC3F30A027B684E
:10154C001A600BE0FB681A68BB681B331B01134461
:10155C001B68DB0823F060427B685A60FB681A68E2
:10156C00BB681B331B0113441B6803F002027B682E
:10157C00DA60FB681A68BB681B331B011344043325
:10158C001B6803F00F027B681A61FB681A68BB6862
:10159C001B331B01134404331B681B0ADAB27B6830
:1015AC009A61FB681A68BB681B331B011344043334
:1015BC001B681B0C9AB27B685A61FB681A68BB6883
:1015CC001B01134403F5DC731B68DAB23B681A7019
:1015DC00FB681A68BB681B01134403F5DC731B68BA
:1015EC001A0A3B680133D2B21A70FB681A68BB68DE
:1015FC001B01134403F5DC731B681A0C3B680233A4
:10160C00D2B21A70FB681A68BB681B01134403F54D
:10161C00DC731B681A0E3B680333D2B21A70FB687A
:10162C001A68BB681B01134403F5DE731A683B6828
:10163C000433D2B21A70FB681A68BB681B011344DE
:10164C0003F5DE731B681A0A3B680533D2B21A70B5
:10165C00FB681A68BB681B01134403F5DE731B6837
:10166C001A0C3B680633D2B21A70FB681A68BB6856
:10167C001B01134403F5DE731B681A0E3B6807331A
:10168C00D2B21A70BB68002B08D1FB681B68DA68F1
:10169C00FB681B6842F02002DA6007E0FB681B68FD
:1016AC001A69FB681B6842F020021A61002306E0ED
:1016BC00FB685B6A43F48022FB685A62012318467C
:1016CC001C37BD4680BC704780B485B000AF7860D5
:1016DC0039600023FB607B6893F82030FB72FB7A47
:1016EC00012B02D0FB7A022B0FD13B68002B06D1C9
:1016FC007B681B68DB6803F00303FB6005E07B6819
:10170C001B681B6903F00303FB60FB681846143766
:10171C00BD4680BC704780B485B000AF786039603E
:10172C007B6893F82030FB73FB7B012B02D0FB7B97
:10173C00022B09D17B681B6859697B681B683A6866
:10174C000A435A61002306E07B685B6A43F48022FB
:10175C007B685A62012318461437BD4680BC70471B
:10176C0080B485B000AF786039607B6893F8203026
:10177C00FB73FB7B012B02D0FB7B022B0AD17B681A
:10178C001B6859693B68DA437B681B680A405A61DD
:10179C00002306E07B685B6A43F480227B685A6214
:1017AC00012318461437BD4680BC704780B58AB0FB
:1017BC0000AF786000237B627B681B685B693B62CF
:1017CC007B681B685B68FB617B681B689B68BB6103
:1017DC007B681B68DB687B617B681B681B693B61F2
:1017EC007B681B689B69FB603B6A03F00103002B61
:1017FC007CD0BB6903F00103002B23D07B681B68F2
:10180C0001229A60BB6903F00203002B03D07868B5
:10181C0000F083F916E0BB6903F00403002B04D03D
:10182C007B6A43F400637B620CE0BB6903F0080342
:10183C00002B04D07B6A43F480537B6202E078680F
:10184C0000F086F9BB6903F48073002B24D07B680D
:10185C001B684FF480729A60BB6903F40073002B11
:10186C0003D0786800F062F916E0BB6903F480637A
:10187C00002B04D07B6A43F400537B620CE0BB6901
:10188C0003F40063002B04D07B6A43F480437B6237
:10189C0002E0786800F065F9BB6903F48033002B33
:1018AC0024D07B681B684FF480329A60BB6903F4C8
:1018BC000033002B03D0786800F041F916E0BB69C7
:1018CC0003F48023002B04D07B6A43F400437B6237
:1018DC000CE0BB6903F40023002B04D07B6A43F4B7
:1018EC0080337B6202E0786800F044F93B6A03F0D5
:1018FC000803002B0CD07B6903F01003002B07D0DE
:10190C007B6A43F400737B627B681B681022DA608D
:10191C003B6A03F00403002B0BD07B6903F0080334
:10192C00002B06D07B681B680822DA60786800F010
:10193C0033F93B6A03F00203002B09D07B681B6868
:10194C00DB6803F00303002B02D0786800F01BF96E
:10195C003B6A03F04003002B0CD03B6903F01003EF
:10196C00002B07D07B6A43F480637B627B681B6827
:10197C0010221A613B6A03F02003002B0BD03B6949
:10198C0003F00803002B06D07B681B6808221A6141
:10199C00786800F013F93B6A03F01003002B09D0B0
:1019AC007B681B681B6903F00303002B02D078686B
:1019BC0000F0FBF83B6A03F40033002B0BD0FB69FF
:1019CC0003F01003002B06D07B681B6810225A60B2
:1019DC00786800F0FCF83B6A03F48033002B0BD0E2
:1019EC00FB6903F00803002B06D07B681B680822F8
:1019FC005A60786800F0F4F83B6A03F40043002B5B
:101A0C007BD0FB6903F00403002B72D03B6A03F418
:101A1C008073002B08D0FB6803F00103002B03D06C
:101A2C007B6A43F001037B623B6A03F40073002B77
:101A3C0008D0FB6803F00203002B03D07B6A43F051
:101A4C0002037B623B6A03F48063002B08D0FB68C3
:101A5C0003F00403002B03D07B6A43F004037B6286
:101A6C003B6A03F40063002B43D0FB6803F0700364
:101A7C00002B3ED0FB6803F07003602B2BD0602B47
:101A8C002ED8502B22D0502B2AD8402B19D0402B9B
:101A9C0026D8302B10D0302B22D8102B02D0202B54
:101AAC0005D01DE07B6A43F008037B6219E07B6A7A
:101ABC0043F010037B6214E07B6A43F020037B62EB
:101ACC000FE07B6A43F040037B620AE07B6A43F0E1
:101ADC0080037B6205E07B6A43F480737B6200E0E9
:101AEC0000BF7B681B689A697B681B6822F07002D8
:101AFC009A617B681B6804225A607B6A002B08D0B1
:101B0C007B685A6A7B6A1A437B685A62786800F071
:101B1C0070F800BF2837BD4680BD80B483B000AFDD
:101B2C00786000BF0C37BD4680BC704780B483B072
:101B3C0000AF786000BF0C37BD4680BC704780B4E6
:101B4C0083B000AF786000BF0C37BD4680BC7047D7
:101B5C0080B483B000AF786000BF0C37BD4680BC4A
:101B6C00704780B483B000AF786000BF0C37BD46BF
:101B7C0080BC704780B483B000AF786000BF0C3776
:101B8C00BD4680BC704780B483B000AF786000BFA6
:101B9C000C37BD4680BC704780B483B000AF786012
:101BAC0000BF0C37BD4680BC704780B483B000AF1B
:101BBC00786000BF0C37BD4680BC704780B483B0E2
:101BCC0000AF786000BF0C37BD4680BC704780B456
:101BDC0083B000AF786000BF0C37BD4680BC704747
:101BEC0080B483B000AF786000BF0C37BD4680BCBA
:101BFC00704780B483B000AF786000BF0C37BD462F
:101C0C0080BC704780B485B000AF78607B6893F877
:101C1C002030FB73FB7B012B02D0FB7B022B12D100
:101C2C007B681B685B6803F00203002B02D0042363
:101C3C00FB7308E07B681B681B6803F00203002B36
:101C4C0001D00323FB73FB7B18461437BD4680BCC5
:101C5C00704780B483B000AF78607B685B6A1846CD
:101C6C000C37BD4680BC704780B485B000AF78603F
:101C7C000023FB737B6893F82030BB73BB7B012B79
:101C8C0002D0BB7B022B03D17B6800225A6207E097
:101C9C007B685B6A43F480227B685A620123FB7386
:101CAC00FB7B18461437BD4680BC704780B582B0AC
:101CBC0000AFFEF739FE7860454B1B68444A43F091
:101CCC000103136008E0FEF72FFE02467B68D31A6F
:101CDC00022B01D9032377E03D4B1B6803F0020371
:101CEC00002BF0D03A4B1B6823F0F803384A43F032
:101CFC0080031360FEF718FE7860354B00225A60A3
:101D0C000AE0FEF711FE02467B68D31A41F28832D4
:101D1C00934201D9032357E02D4B5B6803F00C036E
:101D2C00002BEED12B4B2C4A1A602C4B1B681846FF
:101D3C00FEF7B8FD0346002B01D0012344E0FEF76B
:101D4C00F3FD7860224B1B68214A23F080731360EB
:101D5C0008E0FEF7E9FD02467B68D31A022B01D995
:101D6C00032331E01A4B1B6803F00073002BF0D1F6
:101D7C00174B00225A60FEF7D7FD7860144B1B6896
:101D8C00134A23F41023136008E0FEF7CDFD02463E
:101D9C007B68D31A642B01D9032315E00C4B1B6809
:101DAC0003F40033002BF0D1094B1B68084A23F4D1
:101DBC0080231360064B5B6A054A43F080735362C1
:101DCC00034B00229A60002318460837BD4680BD9D
:101DDC00001002400000002000127A0004000020D5
:101DEC0080B586B000AF78607B68002B01D10123F1
:101DFC0072E27B681B6803F00103002B00F0878004
:101E0C00924B5B6803F00C03042B0CD08F4B5B687C
:101E1C0003F00C03082B12D18C4B5B6803F480335A
:101E2C00B3F5803F0BD1894B1B6803F40033002BB7
:101E3C006CD07B685B68002B68D101234CE27B681B
:101E4C005B68B3F5803F06D1804B1B687F4A43F437
:101E5C00803313602EE07B685B68002B0CD17B4BCE
:101E6C001B687A4A23F480331360784B1B68774ADB
:101E7C0023F4802313601DE07B685B68B3F5A02F0F
:101E8C000CD1724B1B68714A43F4802313606F4B67
:101E9C001B686E4A43F4803313600BE06B4B1B687A
:101EAC006A4A23F480331360684B1B68674A23F437
:101EBC00802313607B685B68002B13D0FEF734FD26
:101ECC00386108E0FEF730FD02463B69D31A642BFB
:101EDC0001D9032300E25D4B1B6803F40033002B94
:101EEC00F0D014E0FEF720FD386108E0FEF71CFD91
:101EFC0002463B69D31A642B01D90323ECE1534B03
:101F0C001B6803F40033002BF0D100E000BF7B68AA
:101F1C001B6803F00203002B63D04C4B5B6803F08F
:101F2C000C03002B0BD0494B5B6803F00C03082B04
:101F3C001CD1464B5B6803F48033002B16D1434B0A
:101F4C001B6803F00203002B05D07B681B69012B77
:101F5C0001D00123C0E13D4B1B6823F0F8027B68E4
:101F6C005B69DB00394913430B603AE07B681B6902
:101F7C00002B20D0364B01221A60FEF7D5FC3861BD
:101F8C0008E0FEF7D1FC02463B69D31A022B01D9BB
:101F9C000323A1E12D4B1B6803F00203002BF0D0AF
:101FAC002A4B1B6823F0F8027B685B69DB0027492E
:101FBC0013430B6015E0264B00221A60FEF7B4FCAD
:101FCC00386108E0FEF7B0FC02463B69D31A022BDD
:101FDC0001D9032380E11D4B1B6803F00203002B86
:101FEC00F0D17B681B6803F00803002B3AD07B68A8
:101FFC009B69002B19D0174B01221A60FEF794FC39
:10200C00386108E0FEF790FC02463B69D31A022BBC
:10201C0001D9032360E10D4B5B6A03F00203002B33
:10202C00F0D0012000F0EEFB1CE00A4B00221A60FD
:10203C00FEF77AFC38610FE0FEF776FC02463B694E
:10204C00D31A022B08D9032346E100BF001002402B
:10205C000000424280044242924B5B6A03F002034E
:10206C00002BE9D17B681B6803F00403002B00F004
:10207C00A6800023FB758B4BDB6903F08053002B90
:10208C000DD1884BDB69874A43F08053D361854B74
:10209C00DB6903F08053BB60BB680123FB75824B8B
:1020AC001B6803F48073002B18D17F4B1B687E4A8E
:1020BC0043F480731360FEF737FC386108E0FEF7D9
:1020CC0033FC02463B69D31A642B01D9032303E189
:1020DC00754B1B6803F48073002BF0D07B68DB68B6
:1020EC00012B06D16F4B1B6A6E4A43F0010313623E
:1020FC002DE07B68DB68002B0CD16A4B1B6A694AAC
:10210C0023F001031362674B1B6A664A23F0040336
:10211C0013621CE07B68DB68052B0CD1614B1B6ADE
:10212C00604A43F0040313625E4B1B6A5D4A43F042
:10213C00010313620BE05B4B1B6A5A4A23F0010349
:10214C001362584B1B6A574A23F0040313627B68D3
:10215C00DB68002B15D0FEF7E7FB38610AE0FEF7D1
:10216C00E3FB02463B69D31A41F28832934201D910
:10217C000323B1E04B4B1B6A03F00203002BEED0A0
:10218C0014E0FEF7D1FB38610AE0FEF7CDFB024606
:10219C003B69D31A41F28832934201D903239BE065
:1021AC00404B1B6A03F00203002BEED1FB7D012B8D
:1021BC0005D13C4BDB693B4A23F08053D3617B68F0
:1021CC00DB69002B00F08780364B5B6803F00C0357
:1021DC00082B61D07B68DB69022B46D1334B002284
:1021EC001A60FEF7A1FB386108E0FEF79DFB024682
:1021FC003B69D31A022B01D903236DE0294B1B68D1
:10220C0003F00073002BF0D17B681B6AB3F5803FA1
:10221C0008D1244B5B6823F400327B689B6821490E
:10222C0013434B601F4B5B6823F474127B68196A71
:10223C007B685B6A0B431B4913434B601B4B0122AE
:10224C001A60FEF771FB386108E0FEF76DFB024681
:10225C003B69D31A022B01D903233DE0114B1B68B8
:10226C0003F00073002BF0D035E0104B00221A6005
:10227C00FEF75AFB386108E0FEF756FB02463B6955
:10228C00D31A022B01D9032326E0064B1B6803F05B
:10229C000073002BF0D11EE07B68DB69012B07D1AA
:1022AC00012319E00010024000700040600042421F
:1022BC000B4B5B68FB60FB6803F480327B681B6A2A
:1022CC009A4206D1FB6803F470127B685B6A9A42EF
:1022DC0001D0012300E0002318461837BD4680BD0D
:1022EC000010024080B584B000AF786039607B6824
:1022FC00002B01D10123D0E06A4B1B6803F00703CC
:10230C003A689A4210D9674B1B6823F0070265495B
:10231C003B6813430B60634B1B6803F007033A687D
:10232C009A4201D00123B8E07B681B6803F00203DA
:10233C00002B20D07B681B6803F00403002B05D016
:10234C00594B5B68584A43F4E06353607B681B68E5
:10235C0003F00803002B05D0534B5B68524A43F43F
:10236C0060535360504B5B6823F0F0027B689B68B2
:10237C004D4913434B607B681B6803F00103002B32
:10238C0040D07B685B68012B07D1474B1B6803F47B
:10239C000033002B15D101237FE07B685B68022B97
:1023AC0007D1414B1B6803F00073002B09D10123AB
:1023BC0073E03D4B1B6803F00203002B01D101239A
:1023CC006BE0394B5B6823F003027B685B68364932
:1023DC0013434B60FEF7A8FAF8600AE0FEF7A4FA84
:1023EC000246FB68D31A41F28832934201D9032387
:1023FC0053E02D4B5B6803F00C027B685B689B0021
:10240C009A42EBD1274B1B6803F007033A689A42B8
:10241C0010D2244B1B6823F0070222493B6813435C
:10242C000B60204B1B6803F007033A689A4201D0FB
:10243C00012332E07B681B6803F00403002B08D0F7
:10244C00194B5B6823F4E0627B68DB681649134325
:10245C004B607B681B6803F00803002B09D0124B00
:10246C005B6823F460527B681B69DB000E491343E5
:10247C004B6000F071F802460B4B5B681B0903F0D4
:10248C000F030A49CB5C22FA03F3094A1360094B88
:10249C001B681846FEF706FA002318461037BD468F
:1024AC0080BD00BF0020024000100240DC35000857
:1024BC00000000200400002080B58AB000AFF86056
:1024CC00B9607A6007F1180300221A605A609A60AA
:1024DC00DA600223FB6103237B6200233B624FF42F
:1024EC008073BB610E4B9B690D4A43F004039361EF
:1024FC000B4B9B6903F004037B617B6907F11803A9
:10250C001946084800F0A2F9054B5B6823F0E0621D
:10251C000349BB6813434B6000BF2837BD4680BDE1
:10252C00001002400008014080B400AF034B0122B0
:10253C001A6000BFBD4680BC704700BF4C004242D1
:10254C0080B400AF034B00221A6000BFBD4680BCB4
:10255C00704700BF4C00424290B48AB000AF294B88
:10256C003C1D0FCB84E80F0040F201233B8000237D
:10257C00FB610023BB6100237B6200237B61002392
:10258C003B62214B5B68FB61FB6903F00C03042B82
:10259C0002D0082B03D02BE01C4B3B622BE0FB69D9
:1025AC009B0C03F00F0328333B4413F8243C7B6152
:1025BC00FB6903F48033002B12D0134B5B685B0C6C
:1025CC0003F0010328333B4413F8283CBB617B69BF
:1025DC000E4A03FB02F2BB69B2FBF3F37B6204E02D
:1025EC007B690B4A02FB03F37B627B6A3B6202E072
:1025FC00064B3B6200BF3B6A18462837BD4690BC71
:10260C00704700BFF43500080010024000127A0039
:10261C0000093D0080B400AF024B1B681846BD4654
:10262C0080BC70470000002080B500AFFFF7F2FFC0
:10263C000246054B5B681B0A03F007030349CB5C9E
:10264C0022FA03F3184680BD00100240EC35000856
:10265C0080B500AFFFF7DEFF0246054B5B68DB0A77
:10266C0003F007030349CB5C22FA03F3184680BD41
:10267C0000100240EC35000880B483B000AF7860E5
:10268C007B680F221A603C4B1B6803F48023B3F564
:10269C00802F04D17B684FF4A0225A600EE0364B99
:1026AC001B6803F48033B3F5803F04D17B684FF48F
:1026BC0080325A6002E07B6800225A602E4B5B68C5
:1026CC0003F400327B689A602B4B1B6803F0010308
:1026DC00012B03D17B6801221A6102E07B68002286
:1026EC001A61254B1B68DB0803F01F027B685A61DB
:1026FC00214B1B6A03F00403042B03D17B680522D6
:10270C00DA600CE01C4B1B6A03F00103012B03D1B4
:10271C007B680122DA6002E07B680022DA60164BEB
:10272C005B6A03F00103012B03D17B6801229A61E0
:10273C0002E07B6800229A610F4B1B6803F08073E8
:10274C00B3F1807F03D17B680222DA6102E07B68FF
:10275C000122DA61084B5B6803F480327B681A62F1
:10276C00054B5B6803F470127B685A6200BF0C3730
:10277C00BD4680BC704700BF0010024080B483B0DF
:10278C0000AF786039607B680F221A60114B5B6870
:10279C0003F003027B685A600E4B5B6803F0F00297
:1027AC007B689A600B4B5B6803F4E0627B68DA60D1
:1027BC00084B5B68DB0803F4E0627B681A61064B2C
:1027CC001B6803F007023B681A6000BF0C37BD465C
:1027DC0080BC7047001002400020024080B500AF62
:1027EC00064B9B6803F08003802B04D100F028F883
:1027FC00034B80221A7000BF80BD00BF0010024046
:10280C000A10024080B485B000AF78600A4B1B6898
:10281C000A4AA2FB03235B0A7A6802FB03F3FB6000
:10282C0000BFFB685A1EFA60002BF9D100BF00BF35
:10283C001437BD4680BC704700000020D34D621099
:10284C0080B400AF00BFBD4680BC704780B48BB075
:10285C0000AF7860396000237B6200233B6253E158
:10286C0001227B6A02FA03F37B613B681B687A697D
:10287C0013403B613A697B699A4240F042813B6864
:10288C005B688F4A934247D08D4A93425ED88D4AFB
:10289C00934241D08B4A934258D88B4A93423BD0B7
:1028AC00894A934252D8894A934235D0874A9342F7
:1028BC004CD8874A93422FD0854A934246D8854AB2
:1028CC00934229D0834A934240D8122B1FD0122B0B
:1028DC003CD8112B11D0112B38D8032B33D0032B10
:1028EC0034D8022B0ED0022B30D8002B14D0012B55
:1028FC002CD13B68DB683B6229E03B68DB68043326
:10290C003B6224E03B68DB6808333B621FE03B68BA
:10291C00DB680C333B621AE03B689B68002B02D1EE
:10292C0004233B6213E03B689B68012B05D1082311
:10293C003B627B687A691A6109E008233B627B6819
:10294C007A695A6103E000233B6200E000BF3B69F7
:10295C00FF2B02D87B68FB6102E07B680433FB61D0
:10296C003B69FF2B03D87B6A9B00BB6103E07B6A4E
:10297C00083B9B00BB61FB691A680F21BB6901FA1C
:10298C0003F3DB431A40396ABB6901FA03F31A43B8
:10299C00FB691A603B685B6803F08053002B00F006
:1029AC00B0804D4B9B694C4A43F0010393614A4BF9
:1029BC009B6903F00103BB60BB68484A7B6A9B08B8
:1029CC00023352F82330FB607B6A03F003039B0055
:1029DC000F2202FA03F3DB43FA681340FB607B68B7
:1029EC003F4A934213D07B683E4A93420DD07B689A
:1029FC003D4A934207D07B683C4A934201D1032362
:102A0C0006E0042304E0022302E0012300E000239B
:102A1C007A6A02F0030292009340FA681343FB6057
:102A2C002E497B6A9B080233FA6841F823203B68E5
:102A3C005B6803F48033002B06D02D4B1A682C49AD
:102A4C003B6913430B6006E0294B1A683B69DB4377
:102A5C00274913400B603B685B6803F40033002B81
:102A6C0006D0234B5A6822493B6913434B6006E05E
:102A7C001F4B5A683B69DB431D4913404B603B6855
:102A8C005B6803F48013002B06D0194B9A68184925
:102A9C003B6913438B6006E0154B9A683B69DB433B
:102AAC00134913408B603B685B6803F40013002BE5
:102ABC0020D00F4BDA680E493B691343CB6020E002
:102ACC000000321000003110000022100000211014
:102ADC000000121000001110001002400000014014
:102AEC0000080140000C014000100140001401409E
:102AFC00000401400B4BDA683B69DB430949134086
:102B0C00CB607B6A01337B623B681A687B6A22FA72
:102B1C0003F3002B7FF4A4AE00BF00BF2C37BD46DF
:102B2C0080BC70470004014080B489B000AF78606D
:102B3C0039600023FB619CE00122FB6902FA03F37C
:102B4C003A6813403B613B69002B00F08F804F4A81
:102B5C00FB699B08023352F82330FB60FB6903F0DE
:102B6C0003039B000F2202FA03F3FA681340FB6085
:102B7C007B68474A934213D07B68464A93420DD0F8
:102B8C007B68454A934207D07B68444A934201D103
:102B9C00032306E0042304E0022302E0012300E007
:102BAC000023FA6902F0030292009340FA689A42F9
:102BBC0032D1FB6903F003039B000F2202FA03F3EB
:102BCC00FB60324AFB699B08023352F82310FB6806
:102BDC00DA432E48FB699B080A40023340F8232055
:102BEC002F4B1A683B69DB432D4913400B602C4B70
:102BFC005A683B69DB432A4913404B60284B9A685F
:102C0C003B69DB43264913408B60254BDA683B69F3
:102C1C00DB4323491340CB603B69FF2B02D87B6815
:102C2C00BB6102E07B680433BB613B69FF2B03D8BB
:102C3C00FB699B007B6103E0FB69083B9B007B61AC
:102C4C00BB691A680F217B6901FA03F3DB431A4055
:102C5C0004217B6901FA03F31A43BB691A607B6890
:102C6C00DA683B69DB431A407B68DA60FB69013345
:102C7C00FB613A68FB6922FA03F3002B7FF45CAF2B
:102C8C0000BF00BF2437BD4680BC70470000014028
:102C9C0000080140000C01400010014000140140EC
:102CAC000004014080B485B000AF78600B467B8097
:102CBC007B689A687B881340002B02D00123FB733E
:102CCC0001E00023FB73FB7B18461437BD4680BC28
:102CDC00704780B483B000AF78600B467B8013469E
:102CEC007B707B78002B03D07A887B681A6103E0B9
:102CFC007B881A047B681A6100BF0C37BD4680BC08
:102D0C00704780B483B000AF78600B467B807B68E3
:102D1C00DA687B881340002B03D07A887B685A6171
:102D2C0002E07A887B681A6100BF0C37BD4680BC14
:102D3C00704780B485B000AF78600B467B804FF451
:102D4C008033FB607A88FB681343FB60FA687B680E
:102D5C009A617A887B689A61FA687B689A617B6869
:102D6C009B69FB607B689B6903F48033002B01D06B
:102D7C00002300E0012318461437BD4680BC704781
:102D8C0080B582B000AF0346FB80084B5A69FB88C4
:102D9C001340002B06D0054AFB885361FB8818466C
:102DAC0000F006F800BF0837BD4680BD00040140A6
:102DBC0080B483B000AF0346FB8000BF0C37BD4628
:102DCC0080BC704780B485B000AF78607B6803F03E
:102DDC000703FB600C4BDB68BB60BA684FF6FF0364
:102DEC001340BB60FB681A02BB68134343F0BF631C
:102DFC0043F40033BB60044ABB68D36000BF143794
:102E0C00BD4680BC704700BF00ED00E080B400AF51
:102E1C00044BDB681B0A03F007031846BD4680BC55
:102E2C00704700BF00ED00E080B483B000AF0346F4
:102E3C00FB7197F90730002B0BDBFB7903F01F02BA
:102E4C00064997F907305B09012000FA02F241F8B4
:102E5C00232000BF0C37BD4680BC704700E100E06A
:102E6C0080B483B000AF0346FB7197F90730002B99
:102E7C0012DBFB7903F01F020A4997F907305B0953
:102E8C00012000FA02F2203341F82320BFF34F8FC8
:102E9C0000BFBFF36F8F00BF00BF0C37BD4680BCB7
:102EAC00704700BF00E100E080B483B000AF034680
:102EBC00FB7197F90730002B0EDB0A4A97F90730A4
:102ECC005B09403352F82320FB7903F01F0322FAED
:102EDC0003F303F0010300E0002318460C37BD4652
:102EEC0080BC704700E100E080B483B000AF0346C3
:102EFC00FB7197F90730002B0CDBFB7903F01F02F9
:102F0C00074997F907305B09012000FA02F24033B8
:102F1C0041F8232000BF0C37BD4680BC704700BF72
:102F2C0000E100E080B483B000AF0346FB7197F979
:102F3C000730002B0CDBFB7903F01F02074997F9D4
:102F4C0007305B09012000FA02F2603341F82320BC
:102F5C0000BF0C37BD4680BC704700BF00E100E0ED
:102F6C0080B483B000AF0346FB7197F90730002B98
:102F7C000EDB0A4A97F907305B09803352F823209D
:102F8C00FB7903F01F0322FA03F303F0010300E0C3
:102F9C00002318460C37BD4680BC704700E100E0AA
:102FAC0080B483B000AF03463960FB7197F90730EA
:102FBC00002B0ADB3B68DAB20C4997F90730120197
:102FCC00D2B20B4483F800230AE03B68DAB208491A
:102FDC00FB7903F00F03043B1201D2B20B441A76B7
:102FEC0000BF0C37BD4680BC704700BF00E100E05D
:102FFC0000ED00E080B483B000AF0346FB7197F99D
:10300C000730002B09DB0C4A97F90730134493F86F
:10301C000033DBB21B09DBB209E0084AFB7903F091
:10302C000F03043B13441B7EDBB21B09DBB21846B7
:10303C000C37BD4680BC704700E100E000ED00E0BD
:10304C0080B489B000AFF860B9607A60FB6803F0B7
:10305C0007037B617B69033B042B04D87B69C3F1B9
:10306C000703FB6101E00423FB617B690433062B3E
:10307C0003D97B69033BBB6101E00023BB614FF0CB
:10308C00FF32FB6902FA03F3DA43BB681A40BB69EF
:10309C009A404FF0FF31BB6901FA03F3D9437B68C7
:1030AC000B40134318462437BD4680BC704780B490
:1030BC0089B000AFF860B9607A603B60BB6803F020
:1030CC0007037B617B69033B042B04D87B69C3F149
:1030DC000703FB6101E00423FB617B690433062BCE
:1030EC0003D97B69033BBB6101E00023BB61FA6838
:1030FC00BB69DA404FF0FF31FB6901FA03F3DB43A4
:10310C001A407B681A604FF0FF32BB6902FA03F376
:10311C00DA43FB681A403B681A6000BF2437BD468F
:10312C0080BC704780B400AFBFF34F8F00BF064B1D
:10313C00DB6803F4E0620449044B1343CB60BFF338
:10314C004F8F00BF00BFFDE700ED00E00400FA0563
:10315C0080B582B000AF78607B68013BB3F1807FB3
:10316C0001D301230FE00A4A7B68013B53600F2116
:10317C004FF0FF30FFF714FF054B00229A60044B11
:10318C0007221A60002318460837BD4680BD00BFD1
:10319C0010E000E080B582B000AF78607868FFF78F
:1031AC0011FE00BF0837BD4680BD80B586B000AFAC
:1031BC000346B9607A60FB7300237B61FFF726FE40
:1031CC0078617A68B9687869FFF73AFF024697F92F
:1031DC000F3011461846FFF7E3FE00BF1837BD4607
:1031EC0080BD80B582B000AF0346FB7197F9073004
:1031FC001846FFF719FE00BF0837BD4680BD80B5E5
:10320C0082B000AF0346FB7197F907301846FFF701
:10321C0027FE00BF0837BD4680BD80B500AFFFF765
:10322C0081FF80B582B000AF78607868FFF790FFBF
:10323C00034618460837BD4680BD80B500AFFFF782
:10324C00E5FD0346184680BD80B584B000AFB9607B
:10325C007A603B600346FB7397F90F301846FFF713
:10326C00C9FE3B687A68B968FFF721FF00BF1037C9
:10327C00BD4680BD80B582B000AF0346FB7197F9A7
:10328C0007301846FFF730FE00BF0837BD4680BD3B
:10329C0080B582B000AF0346FB7197F90730184632
:1032AC00FFF702FE034618460837BD4680BD80B5C1
:1032BC0082B000AF0346FB7197F907301846FFF751
:1032CC0031FE00BF0837BD4680BD80B582B000AF6F
:1032DC000346FB7197F907301846FFF741FE03468A
:1032EC0018460837BD4680BD80B483B000AF786007
:1032FC007B68042B06D1094B1B68084A43F0040376
:10330C00136005E0054B1B68044A23F004031360AB
:10331C0000BF0C37BD4680BC704700BF10E000E01A
:10332C0080B500AF00F002F800BF80BD80B400AFE4
:10333C0000BFBD4680BC70474FF0FF0C1CEAD0525A
:10334C001EBF1CEAD15392EA0C0F93EA0C0F6FD0FC
:10335C001A4480EA010C400218BF5FEA41211ED0DA
:10336C004FF0006343EA501043EA5111A0FB0131C6
:10337C000CF00040B1F5000F3EBF490041EAD3719B
:10338C005B0040EA010062F17F02FD2A1DD8B3F117
:10339C00004F40EBC25008BF20F00100704790F086
:1033AC00000F0CF0004C08BF49024CEA502040EAD8
:1033BC0051207F3AC2BFD2F1FF0340EAC25070479E
:1033CC0040F400004FF00003013A5DDC12F1190FDC
:1033DC00DCBF00F000407047C2F10002410021FA4E
:1033EC0002F1C2F1200200FA02FC5FEA310040F166
:1033FC00000053EA4C0308BF20EADC70704792F0DF
:10340C00000F00F0004C02BF400010F4000F013A16
:10341C00F9D040EA0C0093F0000F01F0004C02BF11
:10342C00490011F4000F013BF9D041EA0C018FE780
:10343C000CEAD15392EA0C0F18BF93EA0C0F0AD086
:10344C0030F0004C18BF31F0004CD8D180EA0100AC
:10345C0000F00040704790F0000F17BF90F0004F45
:10346C00084691F0000F91F0004F14D092EA0C0F27
:10347C0001D142020FD193EA0C0F03D14B0218BFBA
:10348C00084608D180EA010000F0004040F0FE4000
:10349C0040F40000704740F0FE4040F4400070479C
:1034AC004FEA4002B2F1FE4F0FD34FF09E03B3EB45
:1034BC0012620DD94FEA002343F0004310F0004F85
:1034CC0023FA02F018BF404270474FF000007047DB
:1034DC0012F1610F01D1420205D110F0004008BF7A
:1034EC006FF0004070474FF0000070470348044BEA
:1034FC00834202D0034B03B1184770470C000020E5
:10350C000C000020000000000548064B1B1AD90FC8
:10351C0001EBA301491002D0034B03B118477047CC
:10352C000C0000200C0000200000000010B5064C20
:10353C00237843B9FFF7DAFF044B13B10448AFF318
:10354C0000800123237010BD380000200000000013
:10355C001C36000808B5054B1BB105490548AFF3EF
:10356C000080BDE80840FFF7CFBF00BF000000009F
:10357C003C0000201C36000803460244934200D154
:10358C00704703F8011BF9E770B500260C4C0D4B86
:10359C001D1BB6EBA50F09D1002600F02DF80A4C27
:1035AC000A4B1D1BB6EBA50F05D170BD54F8043B9F
:1035BC0098470136EDE754F8043B98470136F1E79C
:1035CC001C3600081C3600081C3600082036000883
:1035DC0000000000000000000102030406070809B7
:1035EC000000000001020304020304050607080999
:1035FC000A0B0C0D0E0F1010F8B500BFF8BC08BC70
:10360C009E467047F8B500BFF8BC08BC9E46704794
:04361C00613500080C
:043620003935000830
:0C3624000024F400100000000100000071
:040000050800010DE1
:00000001FF
